:020000040000FA
:10000000C00A001075010000790100007B010000AA
:100010007D0100007F010000810100000000000060
:10002000000000000000000000000000830100004C
:100030008501000000000000870100008901000028
:100040008B0100008B0100008B0100008B01000080
:100050008B0100008B0100008B0100008B01000070
:100060008B0100008B0100008B0100008B01000060
:100070008B0100008B0100008B0100008B01000050
:100080008B0100008B0100008B0100008B01000040
:100090008B0100008B0100008B0100008B01000030
:1000A000F30F00008B0100008B0100008B010000AA
:1000B0008B0100008B0100008B0100008B01000010
:1000C0008B0100008B0100008B01000000F002F8A2
:1000D00000F03CF80AA090E8000C82448344AAF1A6
:1000E0000107DA4501D100F031F8AFF2090EBAE8A4
:1000F0000F0013F0010F18BFFB1A43F0010318475C
:10010000A0180000C0180000103A24BF78C878C1B9
:10011000FAD8520724BF30C830C144BF04680C600D
:10012000704700000023002400250026103A28BF55
:1001300078C1FBD8520728BF30C148BF0B60704759
:100140001FB500F0CFF81FBD10B510BD00F058F876
:100150001146FFF7F5FF01F02FF900F044F803B462
:10016000FFF7F2FF03BC00F077F80000D0F800D0F2
:10017000D0F804F008480047FEE7FEE7FEE7FEE798
:10018000FEE7FEE7FEE7FEE7FEE7FEE70348044979
:10019000024A044B70470000CD000000C008001068
:1001A000C00A0010C008001000F0E4BC704770479F
:1001B00070477047022803D0032803D100F08DBC9C
:1001C00000F0A8BC70477047704770477047704791
:1001D0007047704770477047704770477047704767
:1001E0007047704770470446AFF300802046FFF722
:1001F000B6FF0000004870475C080010443322112D
:100200007546FFF7F7FFAE4605006946534620F0F6
:100210000700854618B020B5FFF7B8FFBDE82040BD
:100220004FF000064FF000074FF000084FF0000BB2
:1002300021F00701AC46ACE8C009ACE8C009ACE865
:10024000C009ACE8C0098D467047000001487047FE
:10025000704700006008001003494FF01800ABBE63
:1002600070470000090000002600020070470000EF
:1002700010B518480178C078C1F3040141BB154B93
:10028000083B01280AD0134902288A780AD003289B
:100290001ED1114810441860007811E00F48186012
:1002A00012200DE00E48002104E004780CB14488CF
:1002B0002044491C8A42F8D1017849B1186040882D
:1002C0009988814200D9988000F063FC012010BD1C
:1002D000002010BD34000010FD170000CA170000F8
:1002E000DC17000010B5FFF7B1FF4FF0000101600F
:1002F00010BD20454E41424C45000000FFFFFFFF6E
:1003000070B552482021C0F8A01100BFD0F8A0114C
:100310004906FBD5032500F18000C0F884504FF05A
:100320000006C0F82861C0F82C614FF00104C0F845
:100330008C404FF00B01416004604FF0AA03C36092
:100340004FF05501C160A0F1800000BFD0F88820B7
:100350005201FBD540F8805FC360C1602322426236
:100360000462C362C162A0F1800000BFD0F8A8207F
:100370005205FBD500F18800856143624162344932
:10038000C163C0F8406150F88819324A6FEA1161C0
:100390008907D0F80C1101F003013AD129B10129E4
:1003A00011D0022926D003294BD150F8881FC1F360
:1003B0000E01491C4B000168C1F30741491CB3FB06
:1003C000F1F1254B0CE050F8881FC1F30E01491CD8
:1003D0004B000168C1F30741491CB3FBF1F11F4B0E
:1003E0005943C36FA0F18800DBB203F10103B1FBF5
:1003F000F3F125E050F8881FC1F30E01491C4B00B2
:100400000168C1F30741491CB3FBF1F14FF4FA4312
:10041000E6E729B1012907D0022909D0032910D123
:10042000D0F804110C4B07E0D0F804110B4B03E09B
:10043000D0F804114FF4FA43C9B2491CB3FBF1F1EF
:10044000116043F23A01016070BD000000C00F402E
:10045000DE8728840000001000093D00001BB70063
:10046000FF490020087001207047FE4900200870F5
:100470000120704770B5FC4AFB4C9568FB4AA468A4
:10048000526F0023141B04F6010436E0B0F5007F20
:1004900019D213280AD014280BD0B0F5FF7F0BD047
:1004A000A0F58072FF3A09D1AA2222E0C4F34722C4
:1004B0001FE0C4F347421CE055221AE01D2817D85C
:1004C000EB4A125C15E0B0F5006F06D2E94A02442F
:1004D000A2F5805292F8002E0BE0E74AE74E126830
:1004E000B24205D12A18A2F5805292F8002800E005
:1004F0000022E34E401CF2545B1C8B42C6D370BDFD
:1005000070B5D74DEC68402C00D94024D748416FD6
:10051000D5488068091AA86801F6010203199A42B1
:1005200004D20C1A042104F6010429702146FFF7B5
:10053000A1FF2246D249822000F024FDA868D049BC
:100540002044A860E86801F19F01001BE8608A6808
:10055000A2EB04028A6002D10320287002E028780E
:10056000022801D00020087370BDC54910B5C548E8
:100570009F3108600D22822000F004FDB84905205B
:10058000087010BD2DE9F05F0546B7480E4680683B
:10059000B5F5007F31D3B5F5006F30D2DFF8E092CA
:1005A0000024DFF8D482AE4F09F14009DFF8C4B26D
:1005B0004FF0010A1FE000BF291919F8040001EBF0
:1005C0000B02A2F5805282F8000EE52812D1AE4B44
:1005D000D8F800209A4204D010464FEA33429042A5
:1005E00008D1B1F5C46F05D1386918B900F024FEFF
:1005F000C7F810A0641CB442DED3BDE8F09F2844C5
:100600003246BDE8F05F9E49A0F50060403100F041
:10061000C4BD10B59548924C416F9348637880688B
:10062000081AA16800F601020B449A4207D2401A48
:10063000401C607005202070022000F05DFC617895
:10064000A068FFF79FFF6078A1688D4A0144A16010
:10065000E16802F19F02091AE1609368A3EB0000D0
:10066000906002D02078052804D100201073BDE8E6
:1006700010407AE710BD2DE9F0417C48784C416F7D
:10068000794863788068081AA16800F601020B4473
:100690009A4207D2401A401C607005202070022048
:1006A00000F02AFC764D002005F140036178A26835
:1006B00008E01618AE5D1F5CBE4202D000206060EC
:1006C00002E0401C8842F4D35018A060E0686C4AF5
:1006D000401A02F19F02E0609368A3EB0101916070
:1006E00002D02078052807D16168012001B10020DF
:1006F0001073BDE8F04138E7BDE8F081604910B5FE
:100700008031D1F811000A7D00BA20F0FF001043BB
:10071000534A40029060C88A40BA4002D06089685B
:1007200081420DD0822000F0E7FB022000F0E4FBC4
:10073000534902209F310873FFF717FF002010BDB7
:10074000012010BD70B54E4880308168022400F150
:100750001F0521B92C73FFF708FF002070BD007B37
:10076000000603D4022000F0C7FBF3E7012070BDB0
:1007700010B543483A4C803080686178884200D296
:1007800060703F4962784031822000F0FBFB03201B
:1007900020703B4862789F308168891A816000210F
:1007A000017310BD364810B58030816839B1007BC7
:1007B000000601D5822000E0022000F09DFB3049B8
:1007C00000209F310873BDE81040CEE610B5FFF75A
:1007D000B9FF00281FD02A48702140300170002145
:1007E000417002228270C1700171417181710A22CF
:1007F000C271017241728172C17230220273012290
:1008000042738173C1730174417415491220487099
:10081000BDE81040ACE710BD70B5FFF793FF0028AE
:1008200058D01748002240300270802343708270F5
:100830000121C1702021017143718271C2714B226B
:10084000027265224272692383726C22C272017342
:1008500041738173C1734C2202745022427415E0BB
:1008600004000010F4060010B01800002819000061
:100870006C17000048000010FC01000044332211F6
:100880004806001055534253214365874322827422
:100890003124C47437220275302242758275C175C5
:1008A000442505764376732383766B23C3760177DD
:1008B00041778177C17780F820402E2380F821305E
:1008C00080F8222080F82310A54924204870BDE834
:1008D00070404DE770BD10B5FFF734FF00280CD015
:1008E000A04803210170002141708170C1709C49B2
:1008F00004204870BDE810403AE710BD10B5FFF77E
:1009000021FF002810D09748002101700622427074
:100910008170C170017141718171C171904908206C
:100920004870BDE8104023E710BD10B5FFF70AFF7F
:1009300000281ED08C48416F8C488068081A00F649
:1009400001004FF0FF3101EB502186480A0E027082
:100950000A0C42700A0A8270C17000210171417153
:1009600002228271C1717E4908204870BDE81040A2
:10097000FEE610BD10B5FFF7E5FE002821D079484E
:1009800000210170417081700822C270764A0171A5
:10099000536F764A92689A1A02F60102530E437117
:1009A000C2F347438371C2F34722C271022202722B
:1009B00041728272C1726A490C204870BDE81040D1
:1009C000D6E610BD2DE9F041654D664E00206978F0
:1009D0004036644A02E0135C3354401C8842FAD328
:1009E0001F2972D13068624988426ED15D4C7068AF
:1009F0005F346060B068A060707B4FF0010818B988
:100A0000B07B08B1102802D984F80C8059E0F07B43
:100A10001E28F9D00FDC12282ED005DC48B303289D
:100A2000F2D1BDE8F041D1E61528EDD01A28EBD17E
:100A3000BDE8F0414FE702272A2828D010DC232800
:100A40001DD025281ED02828DED1FFF757FE00280C
:100A500026D0307B000618D52F70BDE8F0414FE559
:100A60002F281ED05528CFD05A28CDD1BDE8F0412F
:100A700044E7BDE8F04195E6BDE8F041CCE6BDE8CD
:100A8000F04177E7BDE8F0414FE7022016E0FFF7BD
:100A900035FE002804D0307B00060ED44046287076
:100AA0002AE6FFF72BFE0028FAD0307B000604D49C
:100AB00085F80080C5F804801EE6822000F01CFA4C
:100AC0002773BDE8F04150E5FFE7822000F014FAFB
:100AD000022000F011FA0620E1E710B5204908785D
:100AE000022808D003280ED004280FD0052801D1F1
:100AF0000020087010BD1B484030C07B2828F9D169
:100B0000BDE81040FCE4BDE810402EE5822000F076
:100B1000F3F9F8E710B51349022000F001FA104983
:100B20004870087858B101280FD10E484030C07B7A
:100B30002A2807D02F2812D1BDE810409BE5BDE838
:100B400010403FE7BDE8104063E5022000F0D4F913
:100B5000044902205F310873BDE8104005E510BD6F
:100B6000040000108806001028190000B0180000CA
:100B700055534243664800218180017041704FF017
:100B80000112C0E90221704761491C31002000F0C8
:100B9000C7B910B55E4C1434A288402A00D940224F
:100BA0008020216800F0EEF9216801442160A188CD
:100BB000081AA08010BD10B5554C002014342168CF
:100BC00000F0AEF9216801442160A188081AA080D4
:100BD00010BD00221146802000F0D4B94D490020FC
:100BE00000F09EB92DE9F041494E00271C363178BE
:100BF000474DA6F10804082863D2DFE800F062043C
:100C0000647262628381FFF7BFFF3078C00900F031
:100C100054F9F088A0803078C0F3411100294CD1FC
:100C200071780C2949D2DFE801F00609480B481019
:100C30001A1D1F25314100F0F7FB4CE0002000E0B9
:100C4000012000F02FFC80B306E0C0F3040060BB7D
:100C5000B07840F080002870BDE8F041B9E7FFF7B8
:100C600007FB38E0002029E0C0F30400E8B9284879
:100C7000401C18E0C0F30400B8B900F05BFCA0B160
:100C8000FFF7A7FFBDE8F041FFF792BAC0F30400F9
:100C9000012812D1687840B13079A97888420CD205
:100CA0001B491031084420601DE006E0C0F3040039
:100CB000012802D100F0E2FCC5E7802000F01CF919
:100CC000A780BDE8F081080608D4A0880028F8D0E5
:100CD000FFF771FFA0880028EFD0F2E7BDE8F041F0
:100CE0007CE7080602D5BDE8F04152E72878010606
:100CF000E7D500F07F002870BDE8F04100F043B870
:100D0000802000E00020BDE8F04100F0FFB80000C6
:100D100018000010F406001001464FEA00704FEA78
:100D2000D060090600D5401C7047DF491022C1F889
:100D30000822C1F8100200BFD1F80002C006FBD59E
:100D40007047D94A1023C2F80832C2F8100200BF17
:100D5000D2F80002C006FBD5C2F80832C2F8101261
:100D6000D2F80002C006FBD57047CF493022C1F847
:100D70000822C1F8100200BFD1F800028006FBD59E
:100D8000D1F81402704730B5C849C94D41EA004452
:100D900021462846FFF7D5FF21462846BDE83040CA
:100DA000CFE7C44800210160402141600122026078
:100DB0004160A0F5127000BFD0F80012C905FBD544
:100DC0004FF0FF3100F501704163016341604FF066
:100DD0000C010160704700B5B3491A23C1F8F43F14
:100DE000D1F8F82F33EA0200FAD1B348016921F4AF
:100DF00040210161016941F480210161C16821F054
:100E00004051C160C16841F00051C160416821F0AA
:100E100070514160416841F0A0514160A7494FF0D5
:100E200080700860FFF7BDFF00205DF804EBAAE7C3
:100E300000B101204FF4807141EA0041A04880E7F1
:100E4000704770479F480088800702D59E499C489C
:100E500077E77047704710B500B101204FF48074F8
:100E600044EA00419948FFF76CFF8F480321C0F81E
:100E7000441200BFD0F80012C905FBD5C0F80842E3
:100E800010BD10B502468078FFF746FF8949091F5B
:100E90000C68012303FA00F31C430C60486090883F
:100EA0008860A1F5117100BFD1F80002C005FBD523
:100EB0004FF48070C1F8080210BD704700B5FFF70D
:100EC0002BFF83495DF804EB41EA0040891338E7C2
:100ED00000B5FFF721FF7E495DF804EB41EA0040D1
:100EE0007C492EE700B5FFF717FF79495DF804EB61
:100EF00041EA0040891324E700B5FFF70DFF74496C
:100F00005DF804EB41EA00406F491AE700B5FFF7CE
:100F100003FF6F495DF804EB41EA0040891310E7D5
:100F2000F0B500F00F0201235F4D03EB8202C5F81C
:100F3000282200BFD5F820221305FBD5C2F30904EF
:100F40000022E61C06E000BFD5F818320F46091D46
:100F5000521C3B60B2EB960FF6D30021C5F8281265
:100F600041F24821C140C9070AD1FFF7D5FE4FF42D
:100F7000A06141EA0040FFF7D8FE5748FFF7D5FED1
:100F80002046F0BD70B5134600F00F020224464D16
:100F900004EB8202C5F82822C5F824320022DC1CAA
:100FA00005E000BF51F8046BC5F81C62521CB2EB9F
:100FB000940FF7D30021C5F82812FFF7ADFE4FF4C8
:100FC000A06141EA0040FFF7B0FE4448FFF7ADFEE4
:100FD000184670BD10B54248FFF7A7FE414C2046A9
:100FE000FFF7C3FE03462046FFF7BFFE43EA00209B
:100FF00010BD2DE9F0412C4FD7F80032C7F8083268
:1010000018071BD52E48FFF790FE3748FFF7ADFEB7
:10101000C10605D5FFF7C5FEBDE8F041FFF7C4B82E
:1010200081073FD4010709D5400703D5BDE8F0414A
:10103000FFF7BCB8BDE8F041FFF7B9B82B4D580732
:101040004FF001062ED529E05FF00004D7F83022DA
:1010500006FA04F0014602421DD04FEA5400C7F8D8
:10106000381200BFD7F800128906FBD5D7F8141242
:10107000E2070BD12CB9490703D5296809B1012032
:1010800008E055F8201031B1022003E055F8201097
:1010900009B103208847641C202CD7D3D7F830022D
:1010A0000028D1D1BDE8F08100C0005000018000CF
:1010B0000005D00048C2005000C0024000E100E03E
:1010C0000005FE001C000010000101000005D80012
:1010D00000054000000120000005F2000005FA00B4
:1010E0000005F5000002F5000002FE007018000087
:1010F00062B670475A4A104772B6704770B572B6FA
:101100003325584CC4E90051C4E902232061544AF4
:1011100004F114012046904762B670BD30B4514BC3
:101120003224C3E90040C3E902124D4A30BC03F146
:1011300014011846104730B44A4B3424C3E9004028
:10114000C3E90212464A30BC03F1140118461047A5
:1011500070B5054672B60224434800BF50F82420FB
:101160008A4215D94048783850F82400884209D17D
:101170002A4621462046FFF7D1FF2A46214620462F
:10118000FFF7D9FF2A4621462046FFF7C7FF02E0B6
:10119000641C1D2CE2D962B670BD2DE9F041334CC0
:1011A000636803B96060314B2E4D00209B68283581
:1011B00003E00E5C1F18EE55401C9042F9D39818BE
:1011C0004FF48075A060A84215D1D4E90001FFF763
:1011D000BFFF244E1436306800B1FEE7214AD4E93F
:1011E00000012B462832FFF789FF306800B1FEE787
:1011F0000020A06060600020BDE8F0811C494FF431
:1012000000500860FEF7B2BF10B5164835210160E6
:1012100002214160124A816000F114019047114897
:1012200014300068002800D0012010BD1148406D26
:10123000000500D5E2E7704710B50C4C1D210220D7
:101240002268FFF76BFF1D2102202268FFF773FF62
:10125000044814300068002800D0FEE710BD0000EC
:10126000F11FFF1F34070010281900003C00001078
:1012700008ED00E000C00920002201E004C0091FC1
:101280000029FBD1704710B5814207D004E008C89F
:101290000C1D0B602146121F002AF8D110BD2DE94C
:1012A000F041FFF72DF84E4908684FF2FF0200EABF
:1012B00002004C4A40F4807040EA020008604A494B
:1012C0004FF000000860494A49494A48FFF7DBFFF0
:1012D00049494A48FFF7D0FF494EF8203070FF20B7
:1012E0007070B070474B484A5B6F92680321A3EB64
:1012F000020C0CF601030222084602EB932717E0CA
:101300004FF0FF3202EB9322824202D140F6FF728D
:1013100000E0421C040AC2F30305C4F3030444EAD8
:1013200005147054751812096C70C91CAA70801CC1
:101330008742E5D8354900200A5C3318401C83F801
:1013400000244028F8D33248324A016891421ED026
:10135000314A914202D1312286F803242F4A016892
:10136000914202D1322286F8032400682C49884237
:1013700002D1332186F803142A4904200A183318AD
:1013800012F8042C401C83F800240B28F6D30CF12F
:10139000010C06F23C4686F800C04FEA1C20707033
:1013A0004FEA1C40B0704FEA1C60F070FFF713FD6D
:1013B0000120FFF73DFDFEE710B51548184900680C
:1013C000884204D1FFF720FF08B1FFF717FFFFF7AE
:1013D0001BFF08B1FFF72AFFFFF761FF002010BDD8
:1013E0000CED00E00000FA051400001048000000B9
:1013F00000000010C0190000780A0000480000102A
:101400004800001028190000B01800008A170000DA
:10141000FC010000443322117856341221436587C1
:1014200065872143F202000070B51C481B4B007811
:10143000083BC0F3040028B3184AA3F11404184D64
:1014400061781279012821D0022825D102F08F007D
:10145000012202FA00F2060604D500F00F064FF44E
:101460008032B24009B9000716D1A068104213D0EB
:10147000E068104000D0012028801D60FFF789FB44
:10148000012070BD054818381860F7E721B1A07831
:10149000824201D20020EFE7002070BD340000102E
:1014A000F406001070B5224B024618781946498898
:1014B000C0F30400A3F11C05F0B1012835D00228C7
:1014C00033D11879012400F08F0004FA00F40306E8
:1014D00004D500F00F034FF480349C406B7823B3A5
:1014E000030722D0AB6823421FD0F1B9B2B1FFF796
:1014F00003FDE868204315E0012916D132B101202F
:10150000FFF7A8FCA88840F0020005E00020FFF7E4
:10151000A1FCA88820F00200A88004E0FFF7F6FCF8
:10152000E868A043E860012070BD002070BD0000A5
:10153000340000102DE9F05FDFF838B100279BF888
:1015400002004FF001094FF4803AABF11C0600286D
:1015500066D0494C60E06078022820D0042858D03A
:10156000052819D1B8F1000F16D1A17801F08F0527
:1015700009FA05F0290603D505F00F010AFA01F072
:10158000B16801432046B160FFF77BFC2846FFF7B6
:1015900095FC2846FFF7A6FC207804443CE06179DE
:1015A0009BF80200814232D170702179B1703149CB
:1015B00000200C390F54401C0428FBD35FF00105B8
:1015C000B16809FA05F0084202D02846FFF780FC0E
:1015D000B1680AFA05F0084203D045F08000FFF731
:1015E00077FC6D1C102DEBD34FF00110C6E90207FC
:1015F00035460120FFF72FFCE0794006A88802D588
:1016000040F0010001E020F00100A880C4E76088FC
:10161000C3E794F80380BFE7207800289BD11EE041
:10162000777001244FEA0A05B16809FA04F008420C
:1016300002D02046FFF74CFCB16805FA04F00842DE
:1016400003D044F08000FFF743FC641C102CEBD364
:101650004FF00110C6E902070020FFF7FCFB9BF8E2
:1016600002007178884202D10120BDE8F09F00207D
:10167000FBE7000034000010DC1700002DE9F84FF4
:10168000DFF8E0A09AF80100002869D00020364C6D
:10169000009061E0607802282FD0042834D005281B
:1016A00058D130491C310879B04253D1A078012576
:1016B00000F08F0805FA08F55FEA086004D508F025
:1016C0000F004FF4803585408878B84230D1DAF881
:1016D000081020462943CAF80810DAF80C10A9436C
:1016E000CAF80C10FFF7CDFB4046FFF7E7FB40467A
:1016F000FFF7F8FB49EA05092CE061799AF8010047
:10170000814227D0608826E01648A6781C300179EF
:10171000E7784FF00009B1421CD18078B84219D166
:10172000012000900F48103010F806B0875511E0E6
:101730005F450FD119EA050F0CD1DAF808104046C1
:10174000A943CAF80810DAF80C10A943CAF80C101B
:10175000FFF7BEFB20780444207800289AD1009837
:10176000BDE8F88F18000010DC170000EB3C904D2E
:1017700053444F53352E300002020100011000EC9B
:1017800003F80200010001000000435250204449C8
:101790005341424C452800000000000000000000BA
:1017A000000000000000000000004649524D574173
:1017B000524542494E2018BC41973738373800000F
:1017C0003D6E2B38020000D007001201100100000E
:1017D000004051C203130001042048010902200007
:1017E000010100803209040000020806506207056A
:1017F00082024000000705020240000000040309C5
:10180000041C034E00580050002000530065006D7A
:1018100000690063006F006E006400200028034E22
:10182000005800500020004C0050004300310037A9
:10183000007800780020004D0065006D006F007298
:1018400000790020001A03440045004D004F00308D
:101850000030003000300030003000300030000E2A
:10186000034D0065006D006F0072007900000000FC
:10187000E50B000000000000B501000000000000C2
:101880000000000000000000000000000000000058
:101890000000000000000000000000000000000048
:1018A0000000000000000000000000000000000038
:1018B00000000000001000000020000000300000C8
:1018C00000400000005000000060000000700000B8
:1018D000008000000090000000A0000000B00000A8
:1018E00000C0000000D0000000E0000000F0000098
:1018F00000000100008001000000020000800200E2
:1019000000000300008003000000040000800400C9
:1019100000000500008005000000060000800600B1
:101920000000070000800700FF0F0000FF1F0000FD
:10193000FF2F0000FF3F0000FF4F0000FF5F00008F
:10194000FF6F0000FF7F0000FF8F0000FF9F00007F
:10195000FFAF0000FFBF0000FFCF0000FFDF00006F
:10196000FFEF0000FFFF0000FF7F0100FFFF01000D
:10197000FF7F0200FFFF0200FF7F0300FFFF030065
:10198000FF7F0400FFFF0400FF7F0500FFFF05004D
:10199000FF7F0600FFFF0600FF7F0700FFFF070035
:1019A000C0190000000000104800000008010000FD
:1019B000081A000048000010780A00002401000006
:1019C00000093D00000000000000000000000000D1
:1019D0000000000000000000000000000000000007
:1019E00000000000000000000000000000000000F7
:1019F00000000000000000000000000080BB0000AC
:081A00000000000000000000DE
:04000005000000CD2A
:00000001FF
